:100000000C94B4010C94D1010C94D1010C94D10145
:100010000C94D1010C94D1010C94D1010C94D10118
:100020000C94D1010C94D1010C94D1010C94D10108
:100030000C94D1010C94D1010C94D1010C94D101F8
:100040000C94D1010C94D1010C94D1010C94D101E8
:100050000C94D1010C94D1010C94D1010C94D101D8
:100060000C94D1010C94D1010C94D1010C94D101C8
:10007000000000000000000000065F5F06000000B6
:100080000007070007070000147F7F147F7F14001C
:10009000242E6B6B3A120000466630180C66620024
:1000A000307A4F5D377A48000407030000000000F3
:1000B000001C3E63410000000041633E1C00000044
:1000C000082A3E1C1C3E2A0808083E3E080800007C
:1000D00000A0E06000000000080808080808000010
:1000E00000006060000000006030180C0603010092
:1000F0003E7F594D7F3E000042427F7F40400000DE
:10010000627359496F660000226349497F360000D7
:10011000181C16137F7F1000276745457D390000A6
:100120003C7E4B4979300000036371190F070000D2
:10013000367F49497F360000064F49693F1E00005F
:1001400000006C6C0000000000A0EC6C00000000DF
:10015000081C366341000000141414141414000029
:10016000004163361C080000020351590F060000CD
:100170003E7F415D5D1F1E007C7E13137E7C000070
:10018000417F7F49497F36001C3E63414163220025
:10019000417F7F41637F1C00417F7F495D41630058
:1001A000417F7F491D0103001C3E63415173720072
:1001B0007F7F08087F7F000000417F7F41000000B3
:1001C000307040417F3F0100417F7F081C77630012
:1001D000417F7F41406070007F7F060C067F7F007B
:1001E0007F7F060C187F7F001C3E6341633E1C002E
:1001F000417F7F49090F06001E3F21717F5E00008D
:10020000417F7F19396F460026674D597B320000C8
:1002100003417F7F410300007F7F40407F7F0000DC
:100220001F3F60603F1F00007F7F3018307F7F00DE
:1002300063771C081C776300074F78784F0700002E
:100240006773594D47637100007F7F414100000093
:100250000103060C183060000041417F7F00000060
:10026000080C0603060C0800808080808080808057
:100270000000030704000000207454543C78400040
:10028000413F7F44447C3800387C44446C28000063
:10029000307848493F7F4000387C54545C18000057
:1002A000487E7F490302000098BCA4A4F87C0400A7
:1002B000417F7F08047C780000447D7D4000000081
:1002C00040C484FD7D000000417F7F10386C4400F5
:1002D00000417F7F400000007C7C0C180C7C780083
:1002E0007C7C04047C780000387C44447C3800002A
:1002F00084FCF8A4243C1800183C24A4F8FC8400D6
:10030000447C78441C180000485C54547424000059
:1003100000043E7F442400003C7C40403C7C400084
:100320001C3C60603C1C00003C7C6030607C3C00FD
:10033000446C3810386C44009CBCA0A0FC7C0000CD
:100340004C64745C4C64000008083E774141000036
:1003500000000077770000004141773E0808000068
:10036000020301030203010011241FBECFEFD4E0FA
:10037000DEBFCDBF12E0A0E0B1E0E4E2F3E102C0F5
:1003800005900D92AC33B107D9F722E0ACE3B2E0AF
:1003900001C01D92A634B207E1F70E94EA010C9455
:1003A00090090C9400008EE190E00E94F80363E055
:1003B00074E08FEF93E00E94A80485B7806885BF42
:1003C00080B7806280BF0E9434020E9473030E9443
:1003D0000B0308950E94D3010E943F02C0E0D2E1C6
:1003E0000CE01EE30F2EFEE7DF2EF02D0F2EFCEFAC
:1003F0009F2EF02D0F2EFEE6AF2EF02D0F2EF4EDDA
:10040000BF2EF02D0F2EF8E3CF2EF02D0E941904F1
:10041000E82EF92E9F938F930E94F30480E00E94B0
:10042000E9028E2D9F2D0E94510308831883D882E4
:100430009882D88218830883188208831883A88238
:10044000B882C88218830883188229EC8FE791E06C
:10045000215080409040E1F700C0000080E00E9401
:10046000D1020F900F90D2CF30980895809300144E
:1004700082E68A95F1F700008091001408950E94A9
:1004800001030E94DB028AE091E00E9451038DE0AB
:1004900091E00E94510360E070E081E090E00E94F2
:1004A000E20288E191E00E94510360E070E082E0A6
:1004B00090E00E94E20284E291E00E9451031F92C8
:1004C0001F9282E391E09F938F930E94F3040F9019
:1004D0000F900F900F90C0E0E12C6894DD24D1F8CC
:1004E00002E311E001C0CF2D0E94190421E08733FF
:1004F000920769F4FF24F394FC0E87E29FEF25E056
:10050000815090402040E1F700C0000011C08C53A2
:10051000914069F4FF24FA94FC0E87E29FEF25E0F6
:10052000815090402040E1F700C0000001C0FC2E47
:1005300082E08F151CF0FF2024F402C0FE2C01C0C5
:10054000FD2CCF1581F28C2F0E94E9028FE391E000
:100550000E945103EC2FFF27E7FDF095E35FFE4F6C
:10056000808190E00E9451038F2D0E94E9028AE071
:1005700091E00E945103CF2DDD27C7FDD095FE01EC
:10058000E35FFE4F808190E00E945103DF93FF9272
:100590001F930F930E94F3040F900F900F900F90F2
:1005A000A2CF982F9F70E0E0F0E1908382958F704A
:1005B00080618083089580EB8093001080E00E942A
:1005C000D1020895805580930010862F0E94D10299
:1005D00008950F931F93CF93DF938055809300105E
:1005E000C0E8D0E000E012E1F801108280E00E9453
:1005F000D10221972097C1F7DF91CF911F910F91E1
:100600000895CF93C0E08C2F0E94E902CF5FC830DD
:10061000D1F7CF910895E0E0F0E18EEA808381EA9E
:1006200080838AED808382E1808388EC808388EAFE
:1006300080838FE3808385ED808380E8808381E8F9
:10064000808380E5808389ED808381E2808380E2FE
:10065000808382E080838BED808380E380838DEADA
:100660008083108284EA808386EA80838FEA808395
:100670000E9401030E94DB02089528E0829FC001CE
:100680001124FC01E059F04020E030E0A0E0B2E1AC
:1006900084918C932F5F3F4F319628303105C1F7FD
:1006A0000895EF92FF920F931F93CF93DF938C01E6
:1006B0007C01C0E0D0E006C0F70181917F010E947B
:1006C0003D032196F80101900020E9F73197E01BE6
:1006D000F10BCE17DF0780F3DF91CF911F910F91C0
:1006E000FF90EF900895CF92DF92EF92FF920F93D9
:1006F0001F93CF93DF9382E491E00E9407050E944D
:1007000098046C010E949D04C0E0D0E000E010E07D
:100710000F2EF8E5EF2EF1E0FF2EF02D0E94980449
:10072000FE01F85E808320812817A9F099279F9306
:100730008F931F922F93DF93CF93FF92EF920E949C
:10074000F3040F5F1F4F8DB79EB708960FB6F8944E
:100750009EBF0FBE8DBF2196C11598E0D907F1F657
:10076000C6010E949D04C0E0D0E0E12CF12C0F2EC8
:10077000F2E9CF2EF1E0DF2EF02D0E949804FE0169
:10078000F85E20812817B1F099279F938F931F92CD
:100790002F93DF93CF93DF92CF920E94F3048FEFDA
:1007A000E81AF80A8DB79EB708960FB6F8949EBF60
:1007B0000FBE8DBF2196C11598E0D907F1F6FF92C3
:1007C000EF921F930F9380ED91E09F938F930E9480
:1007D000F3040F900F900F900F900F900F90DF91F8
:1007E000CF911F910F91FF90EF90DF90CF900895E0
:1007F00090BD89B988E18AB98EE880BD08955D9B76
:10080000FECF8CB908955F9BFECF8CB1089587E031
:100810000E943602089586E00E9436020895CF9322
:100820000E940704C82F0E940B04982F8C2FCF9191
:1008300008950E940F048E3938F09E3928F09817D9
:10084000B8F488E292E00895813638F4913628F4BD
:10085000891788F48EE292E008958E3978F49E39F3
:1008600080F4813688F0913690F487E391E0089522
:100870008CE391E0089587E391E0089588E292E0A7
:1008800008958CE391E008958EE292E0089583E369
:1008900092E008958F929F92AF92BF92CF92DF9293
:1008A000EF92FF92CF93DF93EC01688179818A8187
:1008B0009B81611571058105910521F464E279ED53
:1008C0008BE597E02DE133EF41E050E00E94F60820
:1008D00049015A019B01AC01A7EAB1E40E94150944
:1008E0006B017C01ACEEB4EFA50194010E942309D9
:1008F000C60ED71EE81EF91EF7FE06C081E0C81A14
:10090000D108E10880E8F80AC882D982EA82FB822D
:10091000C6019F77DF91CF91FF90EF90DF90CF904E
:10092000BF90AF909F908F9008950E944A040895C1
:1009300080E091E00E944A040895A0E0B0E0809336
:10094000000190930101A0930201B0930301089567
:100950000F931F93CF93DF93EC018B01009731F43A
:100960006115710519F480E090E038C06EE070E028
:1009700081E090E00E940607FC010097A1F380E867
:1009800083830115110571F01387028781E8838342
:1009900080913C0290913D02892B21F4F0933D021D
:1009A000E0933C022097C9F0D187C08783818260A1
:1009B000838380913E0290913F02892B71F4F093E2
:1009C0003F02E0933E028091400290914102892BC8
:1009D00021F4F0934102E0934002CF01DF91CF91E7
:1009E0001F910F910895A0E0B0E0E9EFF4E00C94BE
:1009F0003809FE01359661917191AF0180913E02F7
:100A000090913F020E943405E2E00C9454090F9348
:100A10001F93CF93DF93E0913E02F0913F02238139
:100A200021FF1BC0EC0100E010E0899160913E02C3
:100A300070913F02DB011896ED91FC911997882384
:100A400031F00995892B89F30FEF1FEFEECF8AE084
:100A50000995892B11F4C80102C08FEF9FEFDF9138
:100A6000CF911F910F910895ACE0B0E0EAE3F5E07B
:100A70000C9428097C016B018A01FC011782168203
:100A8000838181FFBDC1CE0101964C01F7019381A5
:100A9000F60193FD859193FF81916F01882309F4FD
:100AA000ABC1853239F493FD859193FF81916F013C
:100AB000853229F4B70190E00E946608E7CF512CF7
:100AC000312C20E02032A0F48B3269F030F48032F7
:100AD00059F0833269F420612CC08D3239F08033B3
:100AE00039F4216026C02260246023C0286021C020
:100AF00027FD27C030ED380F3A3078F426FF06C0C6
:100B0000FAE05F9E300D1124532E13C08AE0389E08
:100B1000300D1124332E20620CC08E3221F426FDBC
:100B20006BC1206406C08C3611F4206802C0883680
:100B300041F4F60193FD859193FF81916F0181113D
:100B4000C1CF982F9F7D9554933028F40C5F1F4F91
:100B5000FFE3F9830DC0833631F0833771F08335BD
:100B600009F05BC022C0F801808189830E5F1F4FAE
:100B700044244394512C540115C03801F2E06F0E07
:100B8000711CF801A080B18026FF03C0652D70E0C4
:100B900002C06FEF7FEFC5012C870E945B082C011C
:100BA00083012C852F77222E17C03801F2E06F0EBB
:100BB000711CF801A080B18026FF03C0652D70E094
:100BC00002C06FEF7FEFC5012C870E9449082C01FE
:100BD0002C852068222E830123FC1BC0832D90E0EE
:100BE00048165906B0F4B70180E290E00E9466080A
:100BF0003A94F4CFF50127FC859127FE81915F019E
:100C0000B70190E00E94660831103A94F1E04F1A63
:100C100051084114510471F7E5C0843611F089364A
:100C200039F5F80127FF07C06081718182819381C6
:100C30000C5F1F4F08C060817181882777FD809508
:100C4000982F0E5F1F4F2F76B22E97FF09C09095F9
:100C50008095709561957F4F8F4F9F4F2068B22E82
:100C60002AE030E0A4010E949808A82EA81844C0E9
:100C7000853729F42F7EB22E2AE030E025C0F22FEE
:100C8000F97FBF2E8F36C1F018F4883579F0B4C0E3
:100C9000803719F0883721F0AFC02F2F2061B22E96
:100CA000B4FE0DC08B2D8460B82E09C024FF0AC08D
:100CB0009F2F9660B92E06C028E030E005C020E1E5
:100CC00030E002C020E132E0F801B7FE07C06081E9
:100CD0007181828193810C5F1F4F06C06081718199
:100CE00080E090E00E5F1F4FA4010E949808A82E9C
:100CF000A818FB2DFF77BF2EB6FE0BC02B2D2E7F25
:100D0000A51450F4B4FE0AC0B2FC08C02B2D2E7EF0
:100D100005C07A2C2B2D03C07A2C01C0752C24FF22
:100D20000DC0FE01EA0DF11D8081803311F4297E92
:100D300009C022FF06C07394739404C0822F867882
:100D400009F0739423FD13C020FF06C05A2C7314BE
:100D500018F4530C5718732C731468F4B70180E21D
:100D600090E02C870E94660873942C85F5CF73144D
:100D700010F4371801C0312C24FF12C0B70180E3F2
:100D800090E02C870E9466082C8522FF17C021FF67
:100D900003C088E590E002C088E790E0B7010CC08E
:100DA000822F867859F021FD02C080E201C08BE2DB
:100DB00027FD8DE2B70190E00E946608A51438F483
:100DC000B70180E390E00E9466085A94F7CFAA9496
:100DD000F401EA0DF11D8081B70190E00E946608E0
:100DE000A110F5CF332009F451CEB70180E290E095
:100DF0000E9466083A94F6CFF7018681978102C077
:100E00008FEF9FEF2C96E2E10C9444090F931F9310
:100E1000CF93DF93869F8001879F100D969F100DC3
:100E20001124C8010E942207EC01009729F0A801B3
:100E300060E070E00E945408CE01DF91CF911F91D5
:100E40000F910895CF93DF938230910510F482E0E3
:100E500090E0E0914402F091450220E030E0A0E013
:100E6000B0E0309739F14081518148175907B8F007
:100E70004817590771F482819381109729F01396CE
:100E80009C938E9312972CC09093450280934402BA
:100E900027C02115310531F04217530718F0A90179
:100EA000DB0101C0EF019A01BD01DF010280F38186
:100EB000E02DD7CF21153105F9F0281B390B24304F
:100EC000310580F48A819B816115710521F0FB0158
:100ED0009383828304C09093450280934402FE0171
:100EE000329644C0FE01E20FF31F8193919322508A
:100EF0003109398328833AC020914202309143025C
:100F0000232B41F4209106013091070130934302D5
:100F100020934202209104013091050121153105F1
:100F200041F42DB73EB74091080150910901241BAF
:100F3000350BE0914202F0914302E217F307A0F46F
:100F40002E1B3F0B2817390778F0AC014E5F5F4F1F
:100F50002417350748F04E0F5F1F5093430240930C
:100F600042028193919302C0E0E0F0E0CF01DF9173
:100F7000CF910895CF93DF93009709F487C0FC01C8
:100F8000329713821282C0914402D0914502209779
:100F900081F420813181280F391F80914202909184
:100FA00043028217930779F5F0934302E0934202DC
:100FB0006DC0DE0120E030E0AE17BF0750F412969E
:100FC0004D915C9113979D014115510509F1DA018D
:100FD000F3CFB383A28340815181840F951F8A1779
:100FE0009B0771F48D919C911197840F951F029628
:100FF0009183808312968D919C9113979383828322
:101000002115310529F4F0934502E09344023EC0D6
:10101000D9011396FC93EE9312974D915D91A40F15
:10102000B51FEA17FB0779F480819181840F951F22
:101030000296D90111969C938E9382819381139687
:101040009C938E931297E0E0F0E08A819B81009759
:1010500019F0FE01EC01F9CFCE0102962881398109
:10106000820F931F209142023091430228173907C3
:1010700069F4309729F4109245021092440202C09C
:1010800013821282D0934302C0934202DF91CF9128
:101090000895FC010590615070400110D8F78095CB
:1010A00090958E0F9F1F0895DC0101C06D934150F4
:1010B0005040E0F70895FC0161507040019001102C
:1010C000D8F7809590958E0F9F1F08950F931F93CB
:1010D000CF93DF93182F092FEB018B8181FD03C084
:1010E0008FEF9FEF20C082FF10C04E815F812C8167
:1010F0003D81421753077CF4E881F9819F012F5FFE
:101100003F4F39832883108306C0E885F985812FF6
:101110000995892B29F72E813F812F5F3F4F3F8310
:101120002E83812F902FDF91CF911F910F910895E2
:10113000FA01AA27283051F1203181F1E8946F9308
:101140006E7F6E5F7F4F8F4F9F4FAF4FB1E03ED0AE
:10115000B4E03CD0670F781F891F9A1FA11D680F4C
:10116000791F8A1F911DA11D6A0F711D811D911D7F
:10117000A11D20D009F468943F912AE0269F1124F4
:101180003019305D3193DEF6CF010895462F477058
:10119000405D4193B3E00FD0C9F7F6CF462F4F70B3
:1011A000405D4A3318F0495D31FD4052419302D011
:1011B000A9F7EACFB4E0A6959795879577956795B7
:1011C000BA95C9F700976105710508959B01AC01B7
:1011D0000A2E06945795479537952795BA95C9F7DE
:1011E000620F731F841F951FA01D0895052E97FB86
:1011F0001EF400940E940D0957FD07D00E945F095C
:1012000007FC03D04EF40C940D0950954095309591
:1012100021953F4F4F4F5F4F089590958095709562
:1012200061957F4F8F4F9F4F08950E948109A59F21
:10123000900DB49F900DA49F800D911D11240895D1
:10124000B7FF0C9415090E941509821B930B089592
:101250002F923F924F925F926F927F928F929F92C6
:10126000AF92BF92CF92DF92EF92FF920F931F93B4
:10127000CF93DF93CDB7DEB7CA1BDB0B0FB6F89465
:10128000DEBF0FBECDBF09942A88398848885F84A5
:101290006E847D848C849B84AA84B984C884DF8016
:1012A000EE80FD800C811B81AA81B981CE0FD11DFA
:1012B0000FB6F894DEBF0FBECDBFED010895A1E2D9
:1012C0001A2EAA1BBB1BFD010DC0AA1FBB1FEE1FC0
:1012D000FF1FA217B307E407F50720F0A21BB30B0B
:1012E000E40BF50B661F771F881F991F1A9469F787
:1012F00060957095809590959B01AC01BD01CF01E3
:101300000895A29FB001B39FC001A39F700D811DDE
:101310001124911DB29F700D811D1124911D0895FE
:04132000F894FFCF6F
:1013240001000000000046022000232000537461E5
:1013340072742047616D6500202048692D53636FE6
:10134400726573002020506C616365686F6C64651E
:10135400720025640D0A00444F574E00555000207A
:1013640020005374617274696E67205352414D209A
:10137400746573742E2E2E0057726974652070681C
:10138400617365206572726F723A206578745F725A
:10139400616D5B2534645D203D2025303258202862
:1013A40073686F756C642062652025303258290D8E
:1013B4000A0052657472696576616C2070686173A5
:1013C40065206572726F723A206578745F72616D20
:1013D4005B2534645D203D20253032582028736815
:1013E4006F756C642062652025303258290D0A001F
:1013F4005352414D207465737420636F6D706C6536
:101404007465642077697468202534642065727279
:101414006F727320696E20777269746520706861D9
:10142400736520616E6420253464206572726F7266
:101434007320696E2072657472696576616C2070C0
:10144400686173652E0D0A005249474854004C45A3
:0C1454004654004E45555452414C0000D7
:00000001FF
