S01200004279676765726E4734362E7372656393
S11300000C9400020C941D020C941D020C941D020D
S11300100C941D020C941D020C941D020C941D02E0
S11300200C941D020C941D020C941D020C941D02D0
S11300300C941D020C941D020C941D020C941D02C0
S11300400C941D020C941D020C941D020C941D02B0
S11300500C941D020C941D020C941D020C941D02A0
S11300600C941D020C941D020C941D020C941D0290
S113007006070F1C38F0E060F00E8112C1421181B6
S113008002010608102020404040404040408000CB
S11300903FC0000181810100808080800000808059
S11300A00000E01F0101000000030402010102013D
S11300B0000000010201010204030000000000002E
S11300C0F00E8112C1421181020106081020204065
S11300D0407008F0000000003FC000018181010071
S11300E080808080000080800000E01F000000000D
S11300F000010201000304020100000304020101E3
S113010002010000000000000000000000000000E8
S113011000065F5F060000000007070007070000F5
S1130120147F7F147F7F1400242E6B6B3A1200001F
S1130130466630180C666200307A4F5D377A4800A4
S11301400407030000000000001C3E63410000009F
S11301500041633E1C000000082A3E1C1C3E2A0885
S113016008083E3E0808000000A0E060000000000F
S1130170080808080808000000006060000000008B
S11301806030180C060301003E7F594D7F3E00008D
S113019042427F7F40400000627359496F6600000D
S11301A0226349497F360000181C16137F7F100014
S11301B0276745457D3900003C7E4B497930000076
S11301C0036371190F070000367F49497F36000029
S11301D0064F49693F1E000000006C6C00000000DF
S11301E000A0EC6C00000000081C36634100000015
S11301F01414141414140000004163361C08000085
S1130200020351590F0600003E7F415D5D1F1E0031
S11302107C7E13137E7C0000417F7F49497F36003A
S11302201C3E634141632200417F7F41637F1C0088
S1130230417F7F495D416300417F7F491D01030088
S11302401C3E6341517372007F7F08087F7F00006A
S113025000417F7F41000000307040417F3F01003A
S1130260417F7F081C776300417F7F4140607000BD
S11302707F7F060C067F7F007F7F060C187F7F0040
S11302801C3E6341633E1C00417F7F49090F060009
S11302901E3F21717F5E0000417F7F19396F460048
S11302A026674D597B32000003417F7F41030000E4
S11302B07F7F40407F7F00001F3F60603F1F000042
S11302C07F7F3018307F7F0063771C081C776300C2
S11302D0074F78784F0700006773594D47637100E3
S11302E0007F7F41410000000103060C18306000CC
S11302F00041417F7F000000080C0603060C080043
S113030080808080808080800000030704000000DB
S1130310207454543C784000413F7F44447C38006E
S1130320387C44446C280000307848493F7F4000C2
S1130330387C54545C180000487E7F490302000056
S113034098BCA4A4F87C0400417F7F08047C780056
S113035000447D7D4000000040C484FD7D00000019
S1130360417F7F10386C440000417F7F40000000D3
S11303707C7C0C180C7C78007C7C04047C78000069
S1130380387C44447C38000084FCF8A4243C1800E5
S1130390183C24A4F8FC8400447C78441C18000015
S11303A0485C54547424000000043E7F442400003C
S11303B03C7C40403C7C40001C3C60603C1C000099
S11303C03C7C6030607C3C00446C3810386C4400E9
S11303D09CBCA0A0FC7C00004C64745C4C640000D9
S11303E008083E77414100000000007777000000D4
S11303F04141773E080800000203010302030100A3
S113040011241FBECFEFD4E0DEBFCDBF11E0A0E0CA
S1130410B1E0E4E3FCE002C005900D92A836B10718
S1130420D9F721E0A8E6B1E001C01D92A237B207D6
S1130430E1F70E9434020C9418060C9400008EE13B
S113044090E00E9431046CE374E088E394E00E943D
S1130450830485B7806885BF80B7806280BF0E94AF
S113046048020E94C90308950E941F0264E087E6BF
S11304700E94CF0223E98FEF92E021508040904008
S1130480E1F700C000000E94020380E090E00895BC
S1130490309808958093001482E68A95F1F700005D
S11304A0809100140895CF92DF92EF92FF920F9300
S11304B01F93CF93DF93C82EF62E00E010E0D12CCB
S11304C0E12CC0E0D2E18F2D0E9492038C2D0E947A
S11304D096032D2D3E2DA80140545F4FFA01E20FE3
S11304E0F31FE491E8832F5F3F4F28313105B1F7C3
S11304F0F394085E1F4F0834110529F7DF91CF915B
S11305001F910F91FF90EF90DF90CF900895CF92BD
S1130510DF92EF92FF920F931F93CF93DF93C82E36
S1130520F62E00E010E0D12CE12CC0E0D2E18F2DBA
S11305300E9492038C2D0E9496032D2D3E2DA8011E
S113054048585F4FFA01E20FF31FE491E8832F5FED
S11305503F4F28313105B1F7F394085E1F4F08343B
S1130560110529F7DF91CF911F910F91FF90EF9023
S1130570DF90CF900895962F682F70E0892F90E038
S11305800E94A703E0E7F0E088E790E0A0E0B2E192
S113059024912C933196E817F907D1F708950F9316
S11305A01F93CF93DF93062F182FC0E0D0E064E0B1
S11305B080E00E94BB029E0123703078332334F420
S11305C0215031092C6F3F6F2F5F3F4F223031058F
S11305D02CF0602F812F0E94530204C0602F812FC2
S11305E00E9487028FE493EC0197F1F700C00000AA
S11305F021961150C836D105D1F6DF91CF911F91C4
S11306000F910895CF93DF93CDB7DEB7C054D109CE
S11306100FB6F894DEBF0FBECDBF80E4E6E0F1E094
S1130620DE01119601900D928A95E1F70E94BD03B7
S113063064E070E080E090E00E9453020E94A00316
S113064086E491E00E940F04CE0101960E940F04FB
S11306507E0121E1E20EF11C01E010E060E070E0B7
S1130660C8010E94A70389E491E00E940F04C70116
S11306700E940F040F5F1F4F80E1E80EF11C04304D
S1130680110561F700E0F12C0F2EF3E0EF2EF02DB1
S113069001C0012F0E94520421E08C34920719F406
S11306A011E0100F07C08155914019F41FEF100F8E
S11306B001C0102F14301CF4112324F402C01F2D88
S11306C001C01E2D011729F3802F0E94AE0389E477
S11306D091E00E940F0481E090E08C0F9D1F20E1C7
S11306E00202800D911D11240E940F04812F0E948B
S11306F0AE0386E491E00E940F0481E090E08C0F49
S11307009D1F20E11202800D911D11240E940F04EF
S11307108DE59FE724E0815090402040E1F700C040
S11307200000B7CF8055809300100895982F9F70D4
S1130730E0E0F0E1908382958F708061808308957A
S113074080EB8093001080E00E949603089580550A
S113075080930010862F0E949603089580558093FD
S1130760001080E890E0E0E0F2E110820197009749
S1130770E1F780E00E9496030895CF93C0E08C2FA8
S11307800E94AE03CF5FC830D1F70E94A003CF917F
S11307900895E0E0F0E18EEA808381EA80838AEDC7
S11307A0808382E1808388EC808388EA80838FE37E
S11307B0808385ED808380E8808381E8808380E581
S11307C0808389ED808381E2808380E2808382E07C
S11307D080838BED808380E380838DEA8083108225
S11307E084EA808386EA80838FEA80830E94BD0343
S11307F00E94A003089528E0829FC0011124FC01F7
S1130800E85FFF4F20E030E0A0E0B2E184918C93F8
S11308102F5F3F4F319628303105C1F70895EF928D
S1130820FF920F931F93CF93DF938C017C01C0E061
S1130830D0E006C0F70181917F010E94FB0321965D
S1130840F80101900020E9F73197E01BF10BCE1776
S1130850DF0780F3DF91CF911F910F91FF90EF900D
S1130860089590BD89B988E18AB98EE880BD08955C
S11308705D9BFECF8CB908955F9BFECF8CB108952C
S113088087E00E944A02089586E00E944A02089581
S1130890CF930E944004C82F0E944404982F8C2FA9
S11308A0CF9108950E9448048E3938F09E3928F07B
S11308B09817B8F484E591E00895813638F49136B8
S11308C028F4891788F48AE591E008958E3978F43C
S11308D09E3980F4813688F0913690F48CE491E06E
S11308E0089581E591E008958CE491E0089584E50C
S11308F091E0089581E591E008958AE591E00895F5
S11309008FE591E008950F931F93CF93DF93EC014C
S11309108B01009731F46115710519F480E090E0C2
S113092038C06EE070E081E090E00E94CE04FC01EB
S11309300097A1F380E883830115110571F01387F3
S1130940028781E883838091680190916901892BF2
S113095021F4F0936901E09368012097C9F0D187ED
S1130960C08783818260838380916A0190916B0147
S1130970892B71F4F0936B01E0936A0180916C010F
S113098090916D01892B21F4F0936D01E0936C013A
S1130990CF01DF91CF911F910F9108950F931F9372
S11309A0CF93DF93869F8001879F100D969F100D34
S11309B01124C8010E94EA04EC01009729F0A8015F
S11309C060E070E00E941106CE01DF91CF911F918B
S11309D00F910895CF93DF938230910510F482E054
S11309E090E0E0917001F091710120E030E0A0E02E
S11309F0B0E0309739F14081518148175907B8F078
S1130A004817590771F482819381109729F013963E
S1130A109C938E9312972CC09093710180937001D4
S1130A2027C02115310531F04217530718F0A901E9
S1130A30DB0101C0EF019A01BD01DF010280F381F6
S1130A40E02DD7CF21153105F9F0281B390B2430BF
S1130A50310580F48A819B816115710521F0FB01C8
S1130A609383828304C09093710180937001FE018B
S1130A70329644C0FE01E20FF31F819391932250FA
S1130A803109398328833AC020916E0130916F0176
S1130A90232B41F4209102013091030130936F0123
S1130AA020936E012091000130910101211531053F
S1130AB041F42DB73EB74091040150910501241B28
S1130AC0350BE0916E01F0916F01E217F307A0F48A
S1130AD02E1B3F0B2817390778F0AC014E5F5F4F90
S1130AE02417350748F04E0F5F1F50936F01409352
S1130AF06E018193919302C0E0E0F0E0CF01DF91B9
S1130B00CF910895CF93DF93009709F487C0FC0138
S1130B10329713821282C0917001D0917101209793
S1130B2081F420813181280F391F80916E019091C9
S1130B306F018217930779F5F0936F01E0936E01CB
S1130B406DC0DE0120E030E0AE17BF0750F412960E
S1130B504D915C9113979D014115510509F1DA01FD
S1130B60F3CFB383A28340815181840F951F8A17E9
S1130B709B0771F48D919C911197840F951F029698
S1130B809183808312968D919C9113979383828392
S1130B902115310529F4F0937101E09370013EC0F1
S1130BA0D9011396FC93EE9312974D915D91A40F86
S1130BB0B51FEA17FB0779F480819181840F951F93
S1130BC00296D90111969C938E93828193811396F8
S1130BD09C938E931297E0E0F0E08A819B810097CA
S1130BE019F0FE01EC01F9CFCE010296288139817A
S1130BF0820F931F20916E0130916F0128173907DE
S1130C0069F4309729F4109271011092700102C0B6
S1130C1013821282D0936F01C0936E01DF91CF9142
S1130C200895DC0101C06D9341505040E0F70895F0
S1070C30F894FFCF62
S1130C3400007201200053746172742047616D6571
S1130C4400000000000048692D53636F726573004F
S1130C54000000000000506C616365686F6C64659B
S1130C6472000000000020200000000000000000CA
S1130C74000000000000232000202000444F574EB1
S1130C84005550005249474854004C454654004EC0
S10B0C9445555452414C000087
S9030000FC
